{
  "contractName": "TestSuma",
  "abi": [
    {
      "anonymous": false,
      "inputs": [
        {
          "indexed": true,
          "internalType": "address",
          "name": "previousOwner",
          "type": "address"
        },
        {
          "indexed": true,
          "internalType": "address",
          "name": "newOwner",
          "type": "address"
        }
      ],
      "name": "OwnershipTransferred",
      "type": "event"
    },
    {
      "anonymous": false,
      "inputs": [
        {
          "indexed": false,
          "internalType": "uint256",
          "name": "_sumaResult",
          "type": "uint256"
        }
      ],
      "name": "SumaValor",
      "type": "event"
    },
    {
      "inputs": [],
      "name": "owner",
      "outputs": [
        {
          "internalType": "address",
          "name": "",
          "type": "address"
        }
      ],
      "stateMutability": "view",
      "type": "function",
      "constant": true
    },
    {
      "inputs": [],
      "name": "renounceOwnership",
      "outputs": [],
      "stateMutability": "nonpayable",
      "type": "function"
    },
    {
      "inputs": [
        {
          "internalType": "address",
          "name": "newOwner",
          "type": "address"
        }
      ],
      "name": "transferOwnership",
      "outputs": [],
      "stateMutability": "nonpayable",
      "type": "function"
    },
    {
      "inputs": [
        {
          "internalType": "uint256",
          "name": "_valor1",
          "type": "uint256"
        },
        {
          "internalType": "uint256",
          "name": "_valor2",
          "type": "uint256"
        }
      ],
      "name": "setNumbers",
      "outputs": [],
      "stateMutability": "nonpayable",
      "type": "function"
    },
    {
      "inputs": [],
      "name": "getNumbers",
      "outputs": [
        {
          "internalType": "uint256",
          "name": "",
          "type": "uint256"
        }
      ],
      "stateMutability": "view",
      "type": "function",
      "constant": true
    }
  ],
  "bytecode": "0x608060405234801561001057600080fd5b5061001a3361001f565b61006f565b600080546001600160a01b038381166001600160a01b0319831681178455604051919092169283917f8be0079c531659141344cd1fd0a4f28419497f9722a3daafe3b4186f6b6457e09190a35050565b6102f58061007e6000396000f3fe608060405234801561001057600080fd5b50600436106100575760003560e01c8063715018a61461005c57806389f915f6146100665780638da5cb5b1461007c578063a378c89814610097578063f2fde38b146100aa575b600080fd5b6100646100bd565b005b6001546040519081526020015b60405180910390f35b6000546040516001600160a01b039091168152602001610073565b6100646100a5366004610247565b6100d1565b6100646100b8366004610269565b61011f565b6100c561019d565b6100cf60006101f7565b565b6100d961019d565b6100e38183610299565b60018190556040519081527f878646d700e7107b93d99f4f47eef2d97143931c3f6b9cfb36ac794f8fe90f1d9060200160405180910390a15050565b61012761019d565b6001600160a01b0381166101915760405162461bcd60e51b815260206004820152602660248201527f4f776e61626c653a206e6577206f776e657220697320746865207a65726f206160448201526564647265737360d01b60648201526084015b60405180910390fd5b61019a816101f7565b50565b6000546001600160a01b031633146100cf5760405162461bcd60e51b815260206004820181905260248201527f4f776e61626c653a2063616c6c6572206973206e6f7420746865206f776e65726044820152606401610188565b600080546001600160a01b038381166001600160a01b0319831681178455604051919092169283917f8be0079c531659141344cd1fd0a4f28419497f9722a3daafe3b4186f6b6457e09190a35050565b6000806040838503121561025a57600080fd5b50508035926020909101359150565b60006020828403121561027b57600080fd5b81356001600160a01b038116811461029257600080fd5b9392505050565b600082198211156102ba57634e487b7160e01b600052601160045260246000fd5b50019056fea26469706673582212202612dc2650d3c4fc28b87d7a341301a32776cd39b88282b5209f41ddea45c66d64736f6c634300080b0033",
  "immutableReferences": {},
  "source": "//SPDX-License-Identifier: MIT\r\n\r\npragma solidity ^0.8.11;\r\n\r\nimport \"@openzeppelin/contracts/access/Ownable.sol\";\r\n\r\ncontract TestSuma is Ownable {\r\n\r\n\r\n uint256 private _sumaResult;\r\n\r\n event SumaValor(uint256 _sumaResult);\r\n\r\n function setNumbers(uint256 _valor1, uint256 _valor2) onlyOwner public {\r\n    _sumaResult = _valor1 + _valor2;\r\n    emit SumaValor(_sumaResult);\r\n }\r\n\r\n function getNumbers() public view returns(uint256) {\r\n    return _sumaResult;\r\n }\r\n\r\n}",
  "sourcePath": "D:\\cursoSolidity\\TestSuma\\contracts\\TestSuma.sol",
  "compiler": {
    "name": "solc",
    "version": "0.8.11+commit.d7f03943.Emscripten.clang"
  },
  "schemaVersion": "3.4.4",
  "updatedAt": "2022-08-27T22:49:23.955Z",
  "networkType": "ethereum",
  "devdoc": {
    "kind": "dev",
    "methods": {
      "owner()": {
        "details": "Returns the address of the current owner."
      },
      "renounceOwnership()": {
        "details": "Leaves the contract without owner. It will not be possible to call `onlyOwner` functions anymore. Can only be called by the current owner. NOTE: Renouncing ownership will leave the contract without an owner, thereby removing any functionality that is only available to the owner."
      },
      "transferOwnership(address)": {
        "details": "Transfers ownership of the contract to a new account (`newOwner`). Can only be called by the current owner."
      }
    },
    "version": 1
  },
  "userdoc": {
    "kind": "user",
    "methods": {},
    "version": 1
  }
}